:020000040800F2
:1000000010060020010100085903000851030008F0
:10001000550300082D020008030F0008000000002F
:1000200000000000000000000000000021050008A2
:100030003102000800000000090400080D06000855
:100040001B0100081B0100081B0100081B01000820
:100050001B0100081B0100081B0100081B01000810
:100060001B0100081B0100081B0100081B01000800
:100070001B0100081B0100081B0100081B010008F0
:100080001B0100081B0100081B0100081B010008E0
:100090001B0100081B0100081B0100081B010008D0
:1000A0001B0100081B0100081B0100081B010008C0
:1000B0001B0100081B010008CD0800081B010008F7
:1000C0001B0100081B0100081B0100081B010008A0
:1000D0001B010008E90C0008110D00081B010008B5
:1000E0001B0100081B0100081B010008DFF80CD0F1
:1000F00000F040F800480047C51400081006002032
:100100000648804706480047FEE7FEE7FEE7FEE7B1
:10011000FEE7FEE7FEE7FEE7FEE7FEE72D06000846
:10012000ED00000840EA01039B0703D009E008C97D
:10013000121F08C0042AFAD203E011F8013B00F8AC
:10014000013B521EF9D2704730B50B4601460020E4
:100150002022012409E021FA02F59D4205D303FA89
:1001600002F5491B04FA02F52844151EA2F101020A
:10017000F1DC30BD064C074D06E0E06840F00103BD
:1001800094E8070098471034AC42F6D3FFF7B2FF6B
:10019000141A0008341A000810B50446A4F13000FF
:1001A00005282FD2DFE800F00308152328000021DE
:1001B000084601F04BFB2AE01649084601F046FBD1
:1001C0001548028814480C38018814A000F09CFEE1
:1001D0001DE01148028810480C3801880FA000F07B
:1001E00093FE4FF47A71084601F030FB0FE00949A5
:1001F000484201F02BFB0AE04FF47A71484201F0CB
:1002000025FB04E00021084601F020FB00BF00BFF1
:1002100010BD000018FCFFFF402C014078787820CA
:100220003D2025642025640D0A00000000BFFEE784
:1002300070472DE9F04102460025002600200023EA
:100240000024002791F803C00CF00F0591F803C0BB
:100250000CF0100CBCF1000F03D091F802C04CEA76
:10026000050591F800C0BCF1000F31D014680020E2
:100270002BE04FF0010C0CFA00F3B1F800C00CEACF
:1002800003069E4220D183004FF00F0C0CFA03F7B7
:10029000BC4305FA03FC4CEA040491F803C0BCF12A
:1002A000280F06D14FF0010C0CFA00FCC2F814C064
:1002B0000AE091F803C0BCF1480F05D14FF0010CE2
:1002C0000CFA00FCC2F810C0401C0828D1D31460FE
:1002D000B1F800C0BCF1FF0F34DD546800202EE0FF
:1002E00000F1080C4FF0010808FA0CF3B1F800C057
:1002F0000CEA03069E4221D183004FF00F0C0CFA4A
:1003000003F7BC4305FA03FC4CEA040491F803C06C
:10031000BCF1280F05D100F1080C08FA0CF8C2F85E
:10032000148091F803C0BCF1480F07D100F1080C0C
:100330004FF0010808FA0CF8C2F81080401C082899
:10034000CED35460BDE8F0814161704701617047D0
:1003500000BFFEE700BFFEE77047000070B5002158
:1003600000230F22C47804B3154C246804F4E0641D
:10037000C4F5E064210AC1F10403CA40447804FAD8
:1003800003F184781440214309010E4C0678A155ED
:10039000047804F01F050124AC4005786D11AD0010
:1003A00005F1E025C5F8004109E0047804F01F05D7
:1003B0000124AC40044D0678761145F8264070BD06
:1003C0000CED00E000E400E080E100E002490143C0
:1003D000024A1160704700000000FA050CED00E0D1
:1003E00010B5002807DA0A07140E054A00F00F03BB
:1003F0001B1FD45403E00A07130E024A135410BD06
:1004000018ED00E000E400E07047000029B1064A62
:10041000D2690243044BDA6104E0034AD2698243A1
:10042000014BDA61704700000010024029B1064A12
:1004300092690243044B9A6104E0034A9269824341
:10044000014B9A61704700000010024030B5002156
:100450000022002400232D4D6D6805F00C0121B110
:10046000042905D0082923D105E0294D056022E0A3
:10047000274D05601FE0254D6D6805F47012234D72
:100480006D6805F48034022505EB92421CB9214DBC
:10049000554305600BE01D4D6D6805F400351DB139
:1004A0001C4D5543056002E0194D5543056002E0BF
:1004B000174D056000BF00BF144D6D6805F0F001D9
:1004C0000909154D6B5C0568DD4045600F4D6D6891
:1004D00005F4E061090A104D6B5C4568DD408560FC
:1004E0000A4D6D6805F46051C90A0B4D6B5C456897
:1004F000DD40C560054D6D6805F44041890B074D31
:100500006B5CC568B5FBF3F5056130BD00100240BA
:1005100000127A0000093D00A0000020B000002079
:10052000704710B500F002F810BD00000CB50020B7
:10053000019000903348006840F4803031490860F1
:1005400000BF3048006800F4003000900198401C63
:100550000190009818B90198B0F5A06FF1D1294821
:10056000006800F4003010B10120009001E000208C
:1005700000900098012843D12348006840F0100003
:10058000214908600846006820F007000860084616
:10059000006840F0020008601A4840681949486045
:1005A0000846406848600846406840F480604860FB
:1005B0000846406820F47C1048600846406840F4D3
:1005C000E81048600846006840F08070086000BF8E
:1005D0000C48006800F000700028F9D00948406815
:1005E00020F00300074948600846406840F00200D8
:1005F000486000BF0348406800F00C000828F9D1AB
:100600000CBD0000001002400020024010B506485A
:10061000006820B104480068401E0349086000F0EB
:10062000A9FE00F0D5FE10BDB400002010B513489F
:10063000006840F001001149086008464068104910
:1006400008400E494860084600680E4908400B49BA
:1006500008600846006820F480200860084640686A
:1006600020F4FE0048604FF41F008860FFF759FF38
:100670004FF000600449086010BD00000010024007
:100680000000FFF8FFFFF6FE08ED00E0F0B50C46B5
:10069000154600220021068C4FF6FE773E40068468
:1006A000028B018C4FF60C7632407E1C06EA031654
:1006B0002E433243104EB0420ED0104EB0420BD0FB
:1006C000B0F1804F08D00E4EB04205D00D4EB04272
:1006D00002D00D4EB04206D14FF6FD76314044F0C7
:1006E0000106314305E04FF6F576314044F001064E
:1006F000314302830184F0BD002C014000340140ED
:100700000004004000080040000C0040F0B50C461A
:100710001546002200210026078C4FF6EF7C07EAE1
:100720000C070784028B018C4FF6FF7707EA04164B
:1007300040F6FF473A404FF6FF7707EA03373A4360
:100740004FF6FF7707EA05273A43114FB8420ED01C
:10075000104FB8420BD0B0F1804F08D00E4FB842C6
:1007600005D00E4FB84202D00D4FB84206D14FF619
:10077000DF77394046F01007394305E04FF65F77E1
:10078000394044F01007394302830184F0BD000072
:10079000002C0140003401400004004000080040EB
:1007A000000C0040F0B50C46154600220021002642
:1007B000078C4FF6FF6C07EA0C070784828B018CCD
:1007C0004FF6FF7707EA04264FF60C773A404FF6CC
:1007D000FF7707EA03172F433A43114FB8420ED071
:1007E000104FB8420BD0B0F1804F08D00E4FB84236
:1007F00005D00E4FB84202D00D4FB84206D14FF689
:10080000FF57394046F48077394305E04FF2FF57F0
:10081000394044F48077394382830184F0BD00007D
:10082000002C01400034014000040040000800405A
:10083000000C0040F0B50C461546002200210026B1
:10084000078C4EF6FF7C07EA0C070784828B018C2D
:100850004FF6FF7707EA043640F6FF473A404FF677
:10086000FF7707EA05273A434FF6FF7707EA033792
:100870003A43114FB8420ED0104FB8420BD0B0F1EE
:10088000804F08D00E4FB84205D00E4FB84202D06C
:100890000D4FB84206D14DF6FF77394046F48057E8
:1008A000394305E047F6FF57394044F48057394350
:1008B00082830184F0BD0000002C0140003401401F
:1008C0000004004000080040000C004010B5012169
:1008D000074800F05FF8012808D106480068401C6E
:1008E000044908600121024800F015F810BD00001D
:1008F000000800400000002021B1028842F0800280
:10090000028004E002884FF67F731A40028070472D
:10091000CA4302827047CA430282704721B10288EB
:1009200042F00102028004E002884FF6FE731A4092
:100930000280704731B1B0F8442042F40042A0F880
:10094000442005E0B0F84420C2F30E02A0F8442091
:100950007047F0B50C4615461E46002100220023C4
:100960000189028B038C4FF6F877394021434FF60B
:10097000FC473A4040F201173A434FF6DD773B40DF
:100980004FF6FF7707EA06172F433B4301810283A7
:100990000384F0BD30B50246002000230024158AF0
:1009A00005EA0103958905EA010413B10CB10120A0
:1009B00000E0002030BD000070B505460C4624481C
:1009C00085420ED0234885420BD0B5F1804F08D028
:1009D0002148854205D02148854202D020488542E1
:1009E00000D100E000BF208850B92389A288618827
:1009F0002846FFF74BFEE188284600F0EDF825E099
:100A0000208804280AD12389A28861882846FFF714
:100A10007DFEE188284600F0E8F817E020880828E5
:100A20000AD12389A28861882846FFF7BBFEE188A6
:100A3000284600F0E7F809E02389A2886188284663
:100A4000FFF7F8FEE188284600F0E5F870BD0000E9
:100A5000002C014000340140000400400008004028
:100A6000000C004000210180418001218180002193
:100A7000C180018170471AB183890B43838102E0F1
:100A800083898B438381704770B500240022002343
:100A9000058C4FF6FE7635400584028C8388048BE6
:100AA0004FF68F752C40B51E2C400D882C43751EBB
:100AB0002A400D892A434D882A43144DA8420BD061
:100AC000134DA84208D0134DA84205D0124DA8429C
:100AD00002D0124DA84213D14FF6F7752A404D8926
:100AE0002A434FF6FB752A408D882A434FF6FF654F
:100AF0002B404FF6FF552B408D892B43CD892B433F
:100B000083800483CD888586028470BD002C0140DB
:100B100000340140004001400044014000480140D1
:100B20000A460021018B4FF6F773194011430183E8
:100B30007047000070B5002200230024058C4EF69B
:100B4000FF7635400584038C8488828B48F6FF75D8
:100B50002A404FF6FF452A400D884FF6FF7606EAF9
:100B600005252A434DF6FF752B400D8906EA05350C
:100B70002B434D8806EA05352B430B4DA84202D086
:100B80000A4DA84208D14BF6FF752C408D894FF6CF
:100B9000FF7606EA85152C4384808283CD88A0F8F1
:100BA0004050038470BD0000002C0140003401401F
:100BB0000A460021818B4FF2FF7319404FF6FF73F5
:100BC00003EA022319438183704781867047A0F8A6
:100BD0004010704781847047028B4FF6F3731A40C0
:100BE0000283028B0A4302837047028B4FF2FF336A
:100BF0001A400283028B4FF6FF7303EA01231A4364
:100C000002837047828B4FF6F3731A408283828B84
:100C10000A4382837047828B4FF2FF331A408283EC
:100C2000828B4FF6FF7303EA01231A4382837047D6
:100C3000002202881D4B98420ED01D4B98420BD0CB
:100C4000B0F1804F08D01B4B984205D01A4B984208
:100C500002D01A4B984204D14FF68F731A404B883A
:100C60001A43174B984207D0164B984204D04FF6C0
:100C7000FF431A40CB881A4302808B8883850B88F8
:100C800003850A4B98420BD0094B984208D00E4B73
:100C9000984205D00D4B984202D00D4B984201D19D
:100CA0000B7A03860123838270470000002C0140E9
:100CB000003401400004004000080040000C0040E7
:100CC000001000400014004000400140004401407A
:100CD000004801404FF6FF71818000210180C180F2
:100CE000418001727047000008B540F22551074865
:100CF00000F042F840B1054800F0FAF8C0B20090A8
:100D00000121684600F008FD08BD000000380140E0
:100D100010B540F22551064800F02EF830B10448D5
:100D200000F0E6F804462046FFF736FA10BD000052
:100D30000044004001F40072B2F5007F00D100BF12
:100D4000CA430280704721B1828942F400528281F5
:100D500004E082894DF6FF731A4082817047024693
:100D60000020B1F5007F00D100BF13880B400BB10C
:100D7000012000E00020704770B5024600240023E7
:100D80000025002040F66A16B14200D100BFC1F331
:100D9000421501F01F03012606FA03F3012D02D1CB
:100DA0009689334006E0022D02D1168A334001E0D5
:100DB000968A33400C12012606FA04F41688344051
:100DC00013B10CB1012000E0002070BDF0B5034666
:100DD000002400260025002040F66A17B94200D101
:100DE00000BF1846C1F3421401F01F06012707FA9D
:100DF00006F5012C01D10C3004E0022C01D1103099
:100E000000E014301AB107682F43076002E007685A
:100E1000AF430760F0BD00002DE9F04786B00546FE
:100E20000E460024A24600BFA1460027B08900B1AB
:100E300000BF2F462C8A4CF6FF700440F088044314
:100E40002C82AC894EF6F3100440B08831890843F7
:100E5000718908430443AC81AC8A4FF6FF400440DB
:100E6000B0890443AC8201A8FFF7F0FA1F4887421B
:100E700002D1DDF810A001E0DDF80CA0A88900F493
:100E8000004040B10AEBCA0000EB0A10316849008B
:100E9000B0FBF1F807E00AEBCA0000EB0A1031687A
:100EA0008900B0FBF1F86420B8FBF0F004012009E0
:100EB000642101FB1089A88900F4004040B1322070
:100EC00000EBC900B0FBF1F000F00700044308E0BC
:100ED000322000EB09106421B0FBF1F000F00F00AC
:100EE00004432C8106B0BDE8F087000000380140C3
:100EF00001468888C0F308007047C1F30802828069
:100F0000704700BFFEE700000FB4054B10B503A902
:100F1000044A029800F018F810BC5DF814FB0000B9
:100F200061120008D400002002E008C8121F08C1A6
:100F3000002AFAD170477047002001E001C1121F5A
:100F4000002AFBD1704700002DE9FF4F89B09B4676
:100F50000446002506E025280BD05A460B999047F9
:100F6000641C6D1C20780028F5D10DB02846BDE822
:100F7000F08F0027B8460122474900E0074314F8E4
:100F8000013F203B02FA03F00842F7D120782E28D7
:100F900019D114F8010F47F004072A280ED06FF07A
:100FA0002F022078A0F1300109290CD808EB880124
:100FB00002EB410100EB0108641CF2E70A98641C93
:100FC00050F8048B0A9020780028CED0642808D0EE
:100FD000692806D075281ED05A460B9990476D1C7B
:100FE00058E00A994FF00A0901C90A91002802DA6B
:100FF00040422D2102E0390504D52B218DF8201027
:10100000012103E0F90704D02021F7E78A4608AE62
:101010000DE00021FAE70A994FF00A0901C90A9187
:10102000F7E74946FFF790F8303106F8011D002830
:10103000F7D1ADEB060000F12009780701D44FF09D
:101040000108C84502DDA8EB090000E00020804649
:10105000002706E008A85A46C05D0B9990476D1C12
:101060007F1C5745F6DB04E030205A460B99904729
:101070006D1CB8F10001A8F10108F5DC05E016F8D7
:10108000010B5A460B9990476D1CB9F10001A9F16B
:101090000109F4DC641C65E70928010030B503464A
:1010A000184603E00C780444E0B2491C141EA2F177
:1010B0000105EAB2F6D130BD10B501214FF4FE7042
:1010C000FFF7B4F901210846FFF7B0F90121C80282
:1010D000FFF7ACF901210846FFF798F9012102203A
:1010E000FFF794F901210420FFF790F900F04AF985
:1010F00000F058F94FF4E13000F004FC00F026FB5A
:1011000000F0E8F84721632000F004F900F0BEF891
:101110000A2000F0EDFB00214FF6FF7000F010F800
:1011200000214FF6FF7000F053F8002141F61F40F8
:1011300000F098FA00F07EFA00F034FC10BD0000D8
:1011400030B587B004460D460320ADF818000420E2
:101150008DF81B0006A91D48FFF76BF86846FFF7DE
:10116000B9FDA8B2ADF80000A0B2ADF804000020AF
:10117000ADF80600ADF8020069464FF08040FFF779
:1011800057FD00231A4603214FF08040FFF7E1FB93
:1011900003A8FFF767FC0A20ADF8140003A9400775
:1011A000FFF70AFC01218807FFF7B2FB0122114675
:1011B0009007FFF760FC00214FF08040FFF70AFD29
:1011C00001218807FFF7AAFB07B030BD00080140E6
:1011D00030B587B004460D46C020ADF81800042095
:1011E0008DF81B0006A91C48FFF723F86846FFF797
:1011F00071FDA8B2ADF80000A0B2ADF80400002067
:10120000ADF80600ADF8020069461448FFF710FD7E
:1012100000231A4603211148FFF79BFB03A8FFF7A1
:1012200021FC0A20ADF8140003A90C48FFF7C4FB09
:1012300001210A48FFF76CFB012211460748FFF71E
:101240001AFC00210548FFF7C5FC01210348FFF700
:1012500065FB07B030BD00000008014000040040FD
:1012600070B504460D4640210748FFF763FDE1B223
:101270000548FFF742FE00BF40210348FFF76FFD1E
:101280000028F9D0204670BD0038014008B50A207A
:101290009623002211460090014800F003F808BD93
:1012A0000000A04070B5049C094D28606960AA60E8
:1012B0000025074EF56035462B61002575613546E2
:1012C000AC610025F56135627562B56270BD0000E4
:1012D000D800002008B501210820FFF7A7F810204A
:1012E0008DF803008001ADF8000003208DF80200A6
:1012F00069460748FEF79DFF28208DF803004FF44C
:101300000060ADF8000069460148FEF792FF08BD95
:10131000000C01407FB505460C4601210420FFF773
:1013200075F81E208DF8000002208DF801008DF860
:10133000020001208DF803006846FFF70FF8A8B2FD
:10134000ADF80800A0B2ADF804000020ADF806002A
:10135000ADF80A0001A90648FFF76AFC0122114610
:101360000348FFF788FB01210148FFF7D7FA7FBD4B
:101370000008004002480068401C014908607047AE
:10138000B800002008B548208DF803004FF4004055
:10139000ADF8000069460248FEF74BFF08BD0000AB
:1013A0000010014008B510208DF803008002ADF850
:1013B000000003208DF8020069460448FEF739FF5B
:1013C0004FF480410148FEF7C1FF08BD0010014005
:1013D00010B53548007802281BD134480068401CFD
:1013E0003249086008460068B0F5967F04D14FF492
:1013F00080412F48FEF7A8FF2C480068B0F5167F03
:1014000007D14FF480412A48FEF7A0FF002027496A
:10141000086025480078032844D124480068401C0F
:10142000224908600846006822490968884205DAAE
:101430004FF480411E48FEF787FF04E04FF48041DF
:101440001B48FEF783FF194800681B49096888425A
:1014500005D1002015490860012018490860174887
:10146000006801281ED10020144908601448006853
:1014700001280CD10F480068401C0E49086008463E
:10148000006828280ED100200D4908600AE00948AC
:101490000068401E074908600846006810B901202E
:1014A0000749086010BD00008C0000208800002063
:1014B00000100140900000209800002094000020BF
:1014C0009C00002000F0F0F94FF4A060FEF77EFFD2
:1014D000FFF7F2FD1EA0FFF717FD00F051F82049BD
:1014E000086000F04DF81F49086000F049F81E49F7
:1014F000086001231D4A1946184600F069F925E0E5
:1015000000F03EF818490968401A32281ED900F048
:1015100037F81549086016480068B0F5FA6F05DA23
:101520001348006832301249086004E0104800682F
:1015300032380F49086001230D4A1946022000F095
:1015400047F90B4801680BA0FFF7DEFCD8E7000065
:101550006D61696E5F626567696E0D0A000000006B
:10156000BC000020C0000020C4000020D0000020EB
:10157000CC00002074657374203D2025640D0A00A2
:101580000148006870470000B800002070B50546AB
:1015900000244AE004EB8400254951F82000A842C9
:1015A00042D104EB840001EB8000406868B904EB91
:1015B00084020B4603EB8202118A04EB840203EBE4
:1015C0008202D068FEF7C0FE0CE004EB8402184BE8
:1015D00003EB8202118A04EB840203EB8202D068DF
:1015E000FEF7B4FE04EB8400114901EB8000806833
:1015F00068B904EB84020B4603EB8202518A04EBC8
:10160000840203EB8202D068FEF79EFE0CE004EB3E
:101610008402074B03EB8202518A04EB840203EB42
:101620008202D068FEF792FE641C062CB2D370BD15
:101630001000002008B54FF47040ADF80000032002
:101640008DF8020010208DF8030069460448FEF76B
:10165000F0FD4FF470410248FEF776FE08BD000031
:10166000000C014030B589B005460C464FF41060BF
:10167000ADF8200018208DF8230003208DF82200FB
:1016800008A91F48FEF7D5FD0020ADF81A00ADF8F7
:101690001600A8B2ADF81800A0B2ADF814000020F2
:1016A0008DF81C0005A91748FFF7C2FA6020ADF8B5
:1016B00004000020ADF80C000120ADF80600002069
:1016C000ADF80A0001A90F48FFF734FA01A90D4847
:1016D000FFF7DAF901210B48FFF72CF90821094837
:1016E000FFF766FA08210748FFF71AFA01210548B3
:1016F000FFF702F901210348FFF710F909B030BDE7
:1017000000080140002C01400146002901DA48424E
:1017100070470846FCE7000038B505460C460A4904
:101720000094CA882B460868802100F01DF80649FD
:10173000C9880819C11700EB5161C911A0EBC1118B
:10174000014AD18038BD0000740100200448002106
:1017500001604160816003480149086000207047D2
:1017600074010020800100202DE9F04705460E4657
:1017700014461F46DDF8208004EB0800B0420FDD60
:10178000301B1FFA80F928194A463946FEF7CAFC71
:10179000A8EB090207EB09012846FEF7C3FC04E0A9
:1017A000281942463946FEF7BDFCBDE8F087000027
:1017B00070B505460E46002404E0295D0348FFF796
:1017C0009CFB641CB442F8DB70BD00000038014093
:1017D000F8B506460F4615461C4600200090A006A8
:1017E000040E11481149086004F10B00C1F805000E
:1017F0000846077146720A220020FFF74FFC00904E
:10180000224629469DF80000FFF748FC00900A2177
:101810000648FFF7CDFF21462846FFF7C9FF012103
:101820006846FFF7C5FFF8BD535A4859000200202B
:1018300070B504460D46A1B20348FFF7C6F9A9B238
:101840000148FFF7C4F970BD002C01402DE9F041BB
:1018500005460C46002D02DD0020FFF797FE002D07
:1018600002DA0120FFF792FE15B90220FFF78EFE83
:10187000002C02DD0320FFF789FE002C02DA042091
:10188000FFF784FE14B90520FFF780FE2046FFF71E
:101890003BFF06462846FFF737FF07463146FFF76E
:1018A000C7FFBDE8F081000010B5104CB4F1807F97
:1018B00001D3012011E024F07F40401E4FF0E021D1
:1018C00048610F214FF0FF30FEF78AFD00204FF0F6
:1018D000E021886107200861002008B100BFFEE711
:1018E0000021481EFEF77CFD10BD000040190100DC
:1018F0000349086000BF024909680029FBD170470D
:10190000B400002010B586B00446012144F2050061
:10191000FEF78CFD4FF40070ADF8140003208DF835
:10192000160018208DF8170005A91C48FEF781FC49
:101930004FF48060ADF8140004208DF8170005A95D
:101940001648FEF776FC25208DF8000002208DF861
:10195000010001208DF802008DF803006846FEF7B3
:10196000FDFC01940020ADF80800ADF80A00ADF8C8
:101970000C00ADF810000C20ADF80E0001A90848CD
:10198000FFF74AFA012240F225510548FFF71EFAF7
:1019900001210348FFF7D7F906B010BD0008014048
:1019A0000038014000B500F013F84FF07E531A469E
:1019B0001946054800F022F84FF07E531A461946A2
:1019C000024800F01BF800BD04010020280100209F
:1019D000022008490860002048608860C8600861EB
:1019E000012005490860002048608860C8600861DF
:1019F000704700004C0100206001002010B5002459
:101A0000046041608260C360046144618461C461B8
:101A1000046210BD341A000800000020D800000045
:101A2000280F00080C1B0008D80000203805000013
:101A3000380F000800000000000000000000000057
:101A40000000000003000000000000000100000092
:101A5000000C014000200010040000000100000004
:101A600000000000000C01400020001005000000F4
:101A70000000000000000000000C014000200010E9
:101A8000000000000000000001000000000C014008
:101A90000040008001000000010000000000000084
:101AA000000C014000400080020000000000000027
:101AB00000000000000C0140004000800000000019
:101AC000010000001E000000000000001E000000D9
:101AD00000000000000000000102030401020304F2
:101AE00006070809020406080000000000000000C4
:101AF00000000000000000000000000000000000E6
:0C1B000000000000DC05000000000000F8
:04000005080000ED02
:00000001FF
